:100000000C9435000C945D000C945D000C945D0024
:100010000C945D000C945D000C945D000C945D00EC
:100020000C945D000C945D000C945D000C945D00DC
:100030000C945D000C945D000C945D000C945D00CC
:100040000C945D000C945D000C94F1010C945D0027
:100050000C9445010C945D000C945D000C945D00C3
:100060000C945D000C945D00BB0211241FBECFEF09
:10007000D4E0DEBFCDBF11E0A0E0B1E0E8E3F1E104
:1000800002C005900D92A036B107D9F712E0A0E6A4
:10009000B1E001C01D92AE37B107E1F710E0CAE64A
:1000A000D0E004C02297FE010E946508C836D1073F
:1000B000C9F70E94C0020C949A080C940000FC013D
:1000C00084E091E091838083138A128A0895FC0171
:1000D00084E091E091838083138A128A0895FB0162
:1000E00002C08281819380818823D9F7108208958C
:1000F000DB0160E070E002C06F5F7F4FFD01E60F43
:10010000F71F80818823C1F7BD0161507040808155
:1001100082833197E617F707D1F74C9311962C930A
:100120000895AF92BF92CF92DF92EF92FF920F931A
:100130001F93DF93CF93CDB7DEB7C05FD0400FB62C
:10014000F894DEBF0FBECDBF6C01AB0120E030E004
:1001500002C02F5F3F4FFA01E20FF31F8081882317
:10016000C1F7233031050CF465C0DA01BC9011965B
:10017000AC901982FE01E758FF4F1082A0E0B0E07A
:10018000BE016F5F7F4F05C0FB01EA0FFB1F80833D
:100190001196FA01EA0FFB1F80818823A9F7A60FA9
:1001A000B71F1C92C6010E946F00760100E010E0AC
:1001B00038C0D7011296ED91FC911397A081B181BF
:1001C00012962D913C911397CF01F9010995E2E028
:1001D000F0E0EE0EFF1EF80131968B1509F5EE0FDB
:1001E000FF1FEC0DFD1DA081B181ED91FC911197D8
:1001F0008E0107581F4F0190F081E02DCD01BE0107
:100200006F5F7F4FA8010995C601B8014B2D2A2DBC
:100210000E94780080E691E0B8010E9417020AC0AF
:100220008F01D60152968D919C915397081719070B
:100230000CF4BFCFC051DF4F0FB6F894DEBF0FBE36
:10024000CDBFCF91DF911F910F91FF90EF90DF9085
:10025000CF90BF90AF9008957093C5006093C40095
:1002600086E08093C20088ED8093C10008959C01D0
:100270008091C00085FF08C0C90144960E943504E2
:100280008F3F11F08093C60008951F920F920FB612
:100290000F9211242F933F934F935F936F937F930C
:1002A0008F939F93AF93BF93EF93FF9380E691E07B
:1002B0000E943701FF91EF91BF91AF919F918F9174
:1002C0007F916F915F914F913F912F910F900FBE52
:1002D0000F901F901895AF92BF92CF92DF92EF923E
:1002E000FF920F931F93DF93CF93CDB7DEB7C05824
:1002F000D0400FB6F894DEBF0FBECDBF6C01FC013D
:10030000E45EFE4F80819181892BE9F11182108298
:100310008E010F5F1F4F80E8F80111928A95E9F76F
:1003200098E9A92EB12CAC0CBD1CC5010E94350466
:10033000EE24FF2411C0E114F10421F4898381E04B
:10034000E82EF12CC5010E943504F801EE0DFF1DC9
:1003500080830894E11CF11C8F3F11F08D3059F718
:10036000D7011197FE01EE0DFF1D80818D3009F040
:10037000D701BE016F5F7F4FA60FB71F1C92C6014A
:1003800002960E94D003C058DF4F0FB6F894DEBF2C
:100390000FBECDBFCF91DF911F910F91FF90EF90D6
:1003A000DF90CF90BF90AF9008951F93CF93DF93CE
:1003B000EC018091C00087FF10C01091C600CE01F3
:1003C00088569F4F612F0E940B041D3031F4C45E8C
:1003D000DE4F81E090E099838883DF91CF911F9178
:1003E00008951F920F920FB60F9211242F933F93EF
:1003F0004F935F936F937F938F939F93AF93BF932D
:10040000EF93FF9380E691E00E94D501FF91EF9179
:10041000BF91AF919F918F917F916F915F914F911C
:100420003F912F910F900FBE0F901F901895EF9254
:10043000FF920F931F93CF93DF937C01EB018C010D
:100440000C5E1F4F04C0C8010E940B0421966881F6
:100450006623C9F7C8016DE00E940B04C8016AE079
:100460000E940B04C7010E943701DF91CF911F91B9
:100470000F91FF90EF900895EF92FF920F931F93CB
:10048000CF93DF938C01EB0124E1E22EF12CE80EF7
:10049000F91E04C0C7010E940B04219668816623DF
:1004A000C9F7C8010E943701DF91CF911F910F91C9
:1004B000FF90EF9008950F931F938C0102960E9476
:1004C000860380E191E0F80191838083C80144961E
:1004D0000E940304C80188569F4F0E94030483E3CF
:1004E00090E09093C5008093C40086E08093C200A2
:1004F00088ED8093C100045E1E4FF80111821082C6
:100500001F910F9108950F931F938C0102960E94E3
:10051000860380E191E0F80191838083C8014496CD
:100520000E940304C80188569F4F0E94030483E37E
:1005300090E09093C5008093C40086E08093C20051
:1005400088ED8093C100045E1E4FF8011182108275
:100550001F910F910895FC0120E030E080818823F5
:1005600011F421E030E0C9010895FC0181E08083AD
:1005700008950895089580E691E00E945B02089531
:100580000F931F93DF93CF93CDB7DEB7A2970FB62C
:10059000F894DEBF0FBECDBF82E591E09A838983D8
:1005A0000A969C838B83CE0105960E9402078E01DA
:1005B000015F1F4FC8010E94670082E691E0B80109
:1005C0000E94B50329A13AA12F5F3F4FF901EE0F19
:1005D000FF1FEC0FFD1FCE010396908B87873AA378
:1005E00029A378948E010F5F1F4F80E691E00E944F
:1005F0006B01C8010E941008F8CF81E0089580E1E6
:1006000008950895FC018AE291E09183808313822A
:100610001282148215820895FC018AE291E091838E
:100620008083138212821482158208951F93CF93C0
:10063000DF93EC011D811F5F1D83E881F98102803A
:10064000F381E02D0995181761F48E81883C48F4F8
:10065000E881F9810284F385E02DCE0109951D82A0
:100660001E82DF91CF911F910895FC01858188231F
:1006700019F086818F5F86838681893C10F0158210
:1006800016820895CF93DF93EC01E881F981019000
:10069000F081E02D0995982F8130C9F48B81882352
:1006A00019F41A821C829B838A818E3111F481E0B5
:1006B0008C838C81813039F4E881F9810680F7815F
:1006C000E02DCE0109958A818F5F8A8319C08A81C6
:1006D000882399F08C81E881F981882349F404808A
:1006E000F581E02DCE010995CE010E94160305C0CB
:1006F0000084F185E02DCE0109951B821A821C82AF
:10070000CE010E943503DF91CF910895FC01118243
:1007100010820895FC01118210820895CF93DF9317
:10072000EC01DC0120E030E018C012968D919C9124
:1007300013978617970771F43197F983E8833196F9
:10074000EE0FFF1FEC0FFD1F8081918113969C938C
:100750008E9312972F5F3F4F1296E881F9812E17E3
:100760003F0718F3DF91CF910895EF92FF920F9317
:100770001F938C017B010E948E03F801808191817F
:100780000196FC01EE0FFF1FE00FF11FF182E082E6
:10079000F801918380831F910F91FF90EF9008954E
:1007A000CF92DF92EF92FF920F931F93CF93DF933D
:1007B0007C016B018C01C0E0D0E00CC0D801ED9150
:1007C000FC91A081B1812D913C91CF01B601F9013D
:1007D000099521960E5F1F4FF70180819181C817FF
:1007E000D90760F3DF91CF911F910F91FF90EF90A8
:1007F000DF90CF900895FC01EE57FF4F80819181EB
:10080000929382930895FC01EE57FF4F808191816E
:100810009293829308950F931F939C01462F8C010E
:1008200000581F4FD801ED91FC91CF01019660E86F
:1008300070E00E943C08BC01E20FF31F4083F80106
:1008400091838083F901EE57FF4F80819181681772
:10085000790741F4CB01019660E870E00E943C0802
:10086000918380831F910F910895CF93DF93FC01B3
:10087000EC01CE57DF4F28813981E058FF4F80814E
:100880009181E058F0408217930711F44FEF0BC0AD
:10089000E20FF31F4081C901019660E870E00E94F9
:1008A0003C0899838883842FDF91CF910895FC01C0
:1008B000EE57FF4F808191819293829308950F9319
:1008C0001F93DF93CF93CDB7DEB727970FB6F8947A
:1008D000DEBF0FBECDBF8C010E94EB0584E490E02B
:1008E000F8019283818385E490E09483838387E495
:1008F00090E09087878388E490E09287818786E400
:1009000090E09487838716BCEEE6F0E080818160FA
:100910008083CE0101960E94000627960FB6F894B8
:10092000DEBF0FBECDBFCF91DF911F910F91089514
:100930000F931F93DF93CF93CDB7DEB727970FB6F3
:10094000F894DEBF0FBECDBF8C010E94EB0584E49E
:1009500090E0F8019283818385E490E0948383831F
:1009600087E490E09087878388E490E0928781878E
:1009700086E490E09487838716BCEEE6F0E0808101
:1009800081608083CE0101960E94000627960FB6F3
:10099000F894DEBF0FBECDBFCF91DF911F910F91B5
:1009A00008950F931F93DF93CF93CDB7DEB72797AB
:1009B0000FB6F894DEBF0FBECDBF8C010E94EB05D1
:1009C00080E890E0D80112969C938E93119781E86D
:1009D00090E014969C938E93139782E890E016967D
:1009E0009C938E93159788E890E018969C938E932D
:1009F00017978AE890E01A969C938E931997E4E8EB
:100A0000F0E01E96FC93EE931D9711821082EFE6A4
:100A1000F0E0808181608083CE0101960E94000613
:100A200027960FB6F894DEBF0FBECDBFCF91DF91F2
:100A30001F910F9108950F931F93DF93CF93CDB71D
:100A4000DEB727970FB6F894DEBF0FBECDBF8C017F
:100A50000E94EB0580E890E0D80112969C938E935B
:100A6000119781E890E014969C938E93139782E8F7
:100A700090E016969C938E93159788E890E01896D0
:100A80009C938E9317978AE890E01A969C938E9386
:100A90001997E4E8F0E01E96FC93EE931D971182FF
:100AA0001082EFE6F0E0808181608083CE010196C4
:100AB0000E94000627960FB6F894DEBF0FBECDBF8A
:100AC000CF91DF911F910F9108950F931F93DF93A3
:100AD000CF93CDB7DEB727970FB6F894DEBF0FBE22
:100AE000CDBF8C010E94EB0580EB90E0D8011296FF
:100AF0009C938E93119781EB90E014969C938E9328
:100B0000139783EB90E018969C938E93179784EB42
:100B100090E01A969C938E931997E2EBF0E01C9666
:100B2000FC93EE931B971082E0E7F0E080818160F8
:100B30008083CE0101960E94000627960FB6F89496
:100B4000DEBF0FBECDBFCF91DF911F910F910895F2
:100B50000F931F93DF93CF93CDB7DEB727970FB6D1
:100B6000F894DEBF0FBECDBF8C010E94EB0580EB79
:100B700090E0D80112969C938E93119781EB90E0B0
:100B800014969C938E93139783EB90E018969C9306
:100B90008E93179784EB90E01A969C938E931997F7
:100BA000E2EBF0E01C96FC93EE931B971082E0E7DB
:100BB000F0E0808181608083CE0101960E94000672
:100BC00027960FB6F894DEBF0FBECDBFCF91DF9151
:100BD0001F910F910895DC011396ED91FC911497EC
:100BE00010821196ED91FC911297108281E08C9306
:100BF0001396ED91FC9114978081887F80830895EE
:100C0000DC011396ED91FC91149710821196ED91F1
:100C1000FC911297108281E08C931396ED91FC91D8
:100C200014978081887F80830895FC01A381B4811B
:100C30008C91887F8C93A381B4819C9180818770F3
:100C4000892B8C930895DC011396ED91FC911497F8
:100C50008081887F80830895FC0160830895DC0192
:100C60001196ED91FC91129780818C7F8083139671
:100C7000ED91FC9114978081877E80830895DC013B
:100C80001196ED91FC91129780818C7F8083139651
:100C9000ED91FC9114978081886180830895DC0137
:100CA0001196ED91FC911297808183608083139659
:100CB000ED91FC9114978081877E80830895DC01FB
:100CC0001196ED91FC91129780818C7F8083119613
:100CD000ED91FC91129780816370862B808313962F
:100CE000ED91FC9114978081877E80830895DC01CB
:100CF0001196ED91FC91129780818F7380830895F6
:100D0000DC011396ED91FC91149780818F7C808398
:100D10000895DC011196ED91FC91129780818F73FB
:100D200080831196ED91FC91129780818068808379
:100D30000895DC011196ED91FC91129780818F7CD2
:100D400080831196ED91FC911297808180830895A4
:100D5000DC011196ED91FC91129780818F73808355
:100D60001196ED91FC9112978081806C808308959B
:100D7000DC011196ED91FC91129780818F7C80832C
:100D80001196ED91FC911297808180638083089584
:100D9000FB018081813608F08451893308F0875047
:100DA0002181213608F02451293308F0275030E002
:100DB0002053304090E0C09744E0880F991F4A9537
:100DC000E1F7282B392BC9010895613608F06451E9
:100DD000693308F06750262F30E020533040C901B6
:100DE0000895FB018181882321F48081818380E340
:100DF00080830895FC018AE391E0918380831382CC
:100E000012820895FC018AE391E09183808313822A
:100E100012820895FC01828193811816190624F02C
:100E200081E090E093838283758364830895FC015D
:100E300082819381029724F482E090E093838283FD
:100E4000778366830895FC0183E090E09383828337
:100E5000718760870895FC01848195810895FC0164
:100E6000868197810895FC01808591850895CF92B0
:100E7000DF92EF92FF920F931F93DF93CF9300D0F7
:100E80000F92CDB7DEB78C017B01FB0181918823E6
:100E9000E9F782E090E0F801938382831B82F701F7
:100EA0008081898381818A83C8016E010894C11C75
:100EB000D11CB6010E94C806F80195838483828103
:100EC0009381029764F0F7018281898383818A8309
:100ED000C801B6010E94C806F80197838683F8010D
:100EE00082819381039774F0F701848189838581DE
:100EF0008A83C801BE016F5F7F4F0E94C806F80158
:100F0000918780870F900F900F90CF91DF911F9165
:100F10000F91FF90EF90DF90CF900895CF92DF92E6
:100F2000EF92FF920F931F93DF93CF9300D00F9216
:100F3000CDB7DEB76C017B018E010F5F1F4F83E0E1
:100F4000F80111928A95E9F7F60182819381009761
:100F500019F4FB0110824AC0181619068CF4F60128
:100F600084819581B80140E150E00E946908C60182
:100F7000B8010E94F1068981F70180838A8181830B
:100F8000F7011282F6018281938102979CF086819B
:100F900097818E010F5F1F4FB80140E150E00E9422
:100FA0006908C601B8010E94F1068981F7018283B0
:100FB0008A818383F7011482F601828193810397EA
:100FC0009CF0808591858E010F5F1F4FB80140E135
:100FD00050E00E946908C601B8010E94F1068981AB
:100FE000F70184838A818583F7011682C7010F90F8
:100FF0000F900F90CF91DF911F910F91FF90EF9085
:10100000DF90CF9008958DE40895089502970E948F
:101010000A08089588E50895460F571FCA010895E4
:10102000089502970E9415080895CF92DF92EF92DB
:10103000FF920F931F936A0124E0E22EF12CE80E39
:10104000F91EC7010E943707C7010E942B078C01B8
:10105000C7010E942F07080F191FC701B8010E947E
:101060002307C701B6010E948E071F910F91FF90C1
:10107000EF90DF90CF90089597FB092E07260AD0B6
:1010800077FD04D00CD006D000201AF4709561953D
:101090007F4F0895F6F7909581959F4F0895AA1B6D
:1010A000BB1B51E107C0AA1FBB1FA617B70710F053
:1010B000A61BB70B881F991F5A95A9F78095909585
:1010C000BC01CD010895EE0FFF1F0590F491E02DB6
:1010D0000994FB019F01E8944230C4F04532B4F416
:1010E0004A3029F497FB1EF4909581959F4F642F09
:1010F00077270E944F08805D8A330CF0895D8193C9
:10110000CB010097A1F716F45DE251931082C9015B
:101110000C948A08DC01FC01672F71917723E1F7B9
:10112000329704C07C916D9370836291AE17BF07B4
:08113000C8F30895F894FFCF05
:1011380000000000910000000000BA02000000005A
:101148006B0100000000BA0200000000BA020000B3
:101158000000BA02BA0200000000FD02FF02BA0253
:10116800BA02BA020103000000008E073707000028
:101178000000BA02BA0200000000050803080000D7
:101188000000100815080A08FEFF000011080608EC
:00000001FF
