:100000000C9435000C945D000C945D000C945D0024
:100010000C945D000C945D000C945D000C945D00EC
:100020000C945D000C945D000C945D000C945D00DC
:100030000C945D000C945D000C945D000C945D00CC
:100040000C945D000C945D000C94CE010C945D004A
:100050000C942E010C945D000C945D000C945D00DA
:100060000C945D000C945D009C0211241FBECFEF28
:10007000D4E0DEBFCDBF12E0A0E0B1E0E6E4F7E2FD
:1000800002C005900D92A836B107D9F713E0A8E693
:10009000B2E001C01D92A438B107E1F710E0CAE652
:1000A000D0E004C02297FE010E942B12C836D1076F
:1000B000C9F70E94A1020C94A1130C940000FC014A
:1000C00084E091E091838083128A0895FC0184E0AA
:1000D00091E091838083128A089590E003C0828129
:1000E00080839F5FFB01E90FF11D80818823B9F7B1
:1000F00010820895DB01622F5A2FFD019E2F951B60
:1001000081918823D9F7E92FFF27E7FDF095EA0FC2
:10011000FB1F80818283915031979F3FD1F74C9391
:1001200011966C930895BF92CF92DF92EF92FF9257
:100130000F931F93DF93CF93CDB7DEB7C05FD0404F
:100140000FB6F894DEBF0FBECDBF6C01DB0190E0AF
:1001500001C09F5FFD01E90FF11D80818823C9F770
:10016000933008F450C0EC901196BC90119719820E
:10017000FE01E758FF4F10828E010F5F1F4FC8012D
:10018000BD010E943F13C601B8010E946D00FF240B
:1001900035C00F2D10E00F5F1F4F000F111F0C0D0A
:1001A0001D1DD801ED91FC91A081B18112962D9178
:1001B0003C911397CF01F90109958E15F1F4F801DF
:1001C000A081B181ED91FC9111978E0107581F4FCD
:1001D0000190F081E02DCD01BE016F5F7F4FA8013E
:1001E0000995C601B8014E2D2B2D0E947A0088E694
:1001F00092E0B8010E94F40106C0F394D601529631
:100200008C91F81630F2C051DF4F0FB6F894DEBF74
:100210000FBECDBFCF91DF911F910F91FF90EF9057
:10022000DF90CF90BF90089570E07093C500609309
:10023000C40086E08093C20088ED8093C1000895D9
:100240009C018091C00085FF08C0C90143960E94AF
:10025000EF038F3F11F08093C60008951F920F9215
:100260000FB60F9211242F933F934F935F936F9389
:100270007F938F939F93AF93BF93EF93FF9388E602
:1002800092E00E942001FF91EF91BF91AF919F9169
:100290008F917F916F915F914F913F912F910F902F
:1002A0000FBE0F901F901895AF92BF92CF92DF9222
:1002B000EF92FF920F93DF93CF93CDB7DEB7C05885
:1002C000D0400FB6F894DEBF0FBECDBF7C01FC015D
:1002D000E95EFE4F80818823B1F110826E0108949F
:1002E000C11CD11C80E8F60111928A95E9F785E9D5
:1002F000A82EB12CAE0CBF1CC5010E94EF0300E07C
:100300000CC0002311F4898301E0C5010E94EF03B2
:10031000F601E00FF11D80830F5F8F3F11F08D30EC
:1003200081F7FE01E00FF11D80818D3009F401504D
:10033000BE016F5F7F4FFB01E00FF11D1082C7010F
:1003400002960E94A403C058DF4F0FB6F894DEBF98
:100350000FBECDBFCF91DF910F91FF90EF90DF9057
:10036000CF90BF90AF9008951F93CF93DF93EC0190
:100370008091C00087FF0EC01091C600CE018B5641
:100380009F4F612F0E94D4031D3021F4C95EDE4FC0
:1003900081E08883DF91CF911F9108951F920F9282
:1003A0000FB60F9211242F933F934F935F936F9348
:1003B0007F938F939F93AF93BF93EF93FF9388E6C1
:1003C00092E00E94B401FF91EF91BF91AF919F9194
:1003D0008F917F916F915F914F913F912F910F90EE
:1003E0000FBE0F901F901895EF92FF920F931F93DF
:1003F000CF93DF937C01EB018C010D5E1F4F04C096
:10040000C8010E94D403219668816623C9F7C801F8
:100410006DE00E94D403C8016AE00E94D403C701C2
:100420000E942001DF91CF911F910F91FF90EF90DB
:100430000895EF92FF920F931F93CF93DF938C0158
:10044000EB0193E1E92EF12CE00EF11E04C0C7018F
:100450000E94D403219668816623C9F7C8010E94CF
:100460002001DF91CF911F910F91FF90EF900895A0
:100470000F931F938C0102960E945D0380E191E02F
:10048000F80191838083C80143960E94CE03C8017E
:100490008B569F4F0E94CE0383E390E09093C5005C
:1004A0008093C40086E08093C20088ED8093C100F1
:1004B000095E1E4FF80110821F910F9108950F934E
:1004C0001F938C0102960E945D0380E191E0F80188
:1004D00091838083C80143960E94CE03C8018B5646
:1004E0009F4F0E94CE0383E390E09093C5008093DA
:1004F000C40086E08093C20088ED8093C100095E4D
:100500001E4FF80110821F910F910895FC0120E009
:1005100030E08081882311F421E030E0C9010895A2
:10052000FC0181E080830895089508950E94DC1203
:1005300008950E942F12089588E692E00E943802E2
:1005400008950F931F93DF93CF93CDB7DEB7A29794
:100550000FB6F894DEBF0FBECDBF85E591E09A835C
:100560008983CE0103960E9480068E01005F1F4F93
:10057000C8010E9466008AE692E0B8010E948A03E0
:100580002AA1E22FF0E03196EE0FFF1FCE01019677
:10059000E80FF91F908B87872F5F2AA3789488E64E
:1005A00092E00E945401FBCF81E0089580E108951C
:1005B0000895FC0184E291E091838083138212828A
:1005C000148215820895FC0184E291E09183808376
:1005D000138212821482158208951F93CF93DF93A2
:1005E000EC011D811F5F1D83E881F9810280F38189
:1005F000E02D0995181761F48E81883C48F4E88154
:10060000F9810284F385E02DCE0109951D821E82B9
:10061000DF91CF911F910895FC018581882319F006
:1006200086818F5F86838681893C10F015821682D1
:100630000895CF93DF93EC01E881F9810190F08177
:10064000E02D0995982F8130C9F48B81882319F406
:100650001A821C829B838A818E3111F481E08C8303
:100660008C81813039F4E881F9810680F781E02DB1
:10067000CE0109958A818F5F8A8319C08A81882378
:1006800099F08C81E881F981882349F40480F5810F
:10069000E02DCE010995CE010E94ED0205C0008437
:1006A000F185E02DCE0109951B821A821C82CE01B4
:1006B0000E940C03DF91CF910895FC0110820895F0
:1006C000FC0110820895CF93DF93EC01DC0120E060
:1006D00030E017C011968D919C911297861797075D
:1006E00069F4E150E883F0E0EE0FFF1FEC0FFD1F0F
:1006F0008181928112969C938E9311972F5F3F4F29
:100700001296E8818E2F90E02817390718F3DF91B1
:10071000CF910895EF92FF920F931F938C017B016D
:100720000E946303F8018081E82FF0E0EE0FFF1FC5
:10073000E00FF11FF282E1828F5FF80180831F9149
:100740000F91FF90EF900895EF92FF921F93CF9338
:10075000DF93EC017B0110E012C0E12FF0E0EE0F1F
:10076000FF1FEC0FFD1FA181B281ED91FC9111974C
:100770000190F081E02DCD01B70109951F5F8881BF
:10078000181758F3DF91CF911F91FF90EF900895C4
:10079000FC01EF57FF4F808182930895FC01EF57D2
:1007A000FF4F808182930895DC01A058BF4FEC91E8
:1007B000F0E031969F012F7730703197E80FF91FE5
:1007C00060832C93FC01EF57FF4F8081281731F491
:1007D000822F90E001968F77907080830895FC01BE
:1007E000DC01AF57BF4F9C91E058FF4F8081E0582C
:1007F000F040891711F42FEF09C0892F90E0E80F1E
:10080000F91F208101968F7790708C93822F089525
:10081000FC01EF57FF4F8081829308950F931F9340
:10082000DF93CF93CDB7DEB727970FB6F894DEBF2F
:100830000FBECDBF8C010E949A0584E490E0F801C0
:100840009283818385E490E09483838387E490E0BE
:100850009087878388E490E09287818786E490E0A0
:100860009487838716BCEEE6F0E080818160808308
:10087000CE0101960E94AF0527960FB6F894DEBF11
:100880000FBECDBFCF91DF911F910F9108950F93B0
:100890001F93DF93CF93CDB7DEB727970FB6F894AA
:1008A000DEBF0FBECDBF8C010E949A0584E490E0AC
:1008B000F8019283818385E490E09483838387E4C5
:1008C00090E09087878388E490E09287818786E430
:1008D00090E09487838716BCEEE6F0E0808181602B
:1008E0008083CE0101960E94AF0527960FB6F8943B
:1008F000DEBF0FBECDBFCF91DF911F910F91089545
:100900000F931F93DF93CF93CDB7DEB727970FB623
:10091000F894DEBF0FBECDBF8C010E949A0580E81F
:1009200090E0D80112969C938E93119781E890E005
:1009300014969C938E93139782E890E016969C935E
:100940008E93159788E890E018969C938E9317974E
:100950008AE890E01A969C938E931997E4E8F0E069
:100960001E96FC93EE931D9711821082EFE6F0E045
:10097000808181608083CE0101960E94AF05279619
:100980000FB6F894DEBF0FBECDBFCF91DF911F91A0
:100990000F9108950F931F93DF93CF93CDB7DEB7D9
:1009A00027970FB6F894DEBF0FBECDBF8C010E9413
:1009B0009A0580E890E0D80112969C938E93119747
:1009C00081E890E014969C938E93139782E890E0D0
:1009D00016969C938E93159788E890E018969C93B2
:1009E0008E9317978AE890E01A969C938E931997A6
:1009F000E4E8F0E01E96FC93EE931D9711821082BE
:100A0000EFE6F0E0808181608083CE0101960E9454
:100A1000AF0527960FB6F894DEBF0FBECDBFCF91BE
:100A2000DF911F910F9108950F931F93DF93CF9341
:100A3000CDB7DEB727970FB6F894DEBF0FBECDBF98
:100A40008C010E949A0580EB90E0D80112969C934D
:100A50008E93119781EB90E014969C938E9313974D
:100A600083EB90E018969C938E93179784EB90E01D
:100A70001A969C938E931997E2EBF0E01C96FC93E8
:100A8000EE931B971082E0E7F0E080818160808325
:100A9000CE0101960E94AF0527960FB6F894DEBFEF
:100AA0000FBECDBFCF91DF911F910F9108950F938E
:100AB0001F93DF93CF93CDB7DEB727970FB6F89488
:100AC000DEBF0FBECDBF8C010E949A0580EB90E087
:100AD000D80112969C938E93119781EB90E0149617
:100AE0009C938E93139783EB90E018969C938E9330
:100AF000179784EB90E01A969C938E931997E2EBEC
:100B0000F0E01C96FC93EE931B971082E0E7F0E078
:100B1000808181608083CE0101960E94AF05279677
:100B20000FB6F894DEBF0FBECDBFCF91DF911F91FE
:100B30000F910895DC011396ED91FC9114971082AA
:100B40001196ED91FC911297108281E08C9313968F
:100B5000ED91FC9114978081887F80830895DC015A
:100B60001396ED91FC91149710821196ED91FC91E2
:100B70001297108281E08C931396ED91FC9114975B
:100B80008081887F80830895FC01A381B4818C914A
:100B9000887F8C93A381B4819C9180818770892BFD
:100BA0008C930895DC011396ED91FC91149780814C
:100BB000887F80830895FC0160830895DC0111968D
:100BC000ED91FC91129780818C7F80831396ED913B
:100BD000FC9114978081877E80830895DC011196B3
:100BE000ED91FC91129780818C7F80831396ED911B
:100BF000FC9114978081886180830895DC011196AF
:100C0000ED91FC9112978081836080831396ED9122
:100C1000FC9114978081877E80830895DC01119672
:100C2000ED91FC91129780818C7F80831196ED91DC
:100C3000FC91129780816370862B80831396ED91CF
:100C4000FC9114978081877E80830895DC01119642
:100C5000ED91FC91129780818F7380830895DC0160
:100C60001396ED91FC91149780818F7C8083089579
:100C7000DC011196ED91FC91129780818F73808336
:100C80001196ED91FC911297808180688083089580
:100C9000DC011196ED91FC91129780818F7C80830D
:100CA0001196ED91FC911297808180830895DC016B
:100CB0001196ED91FC91129780818F73808311962C
:100CC000ED91FC9112978081806C80830895DC0106
:100CD0001196ED91FC91129780818F7C8083119603
:100CE000ED91FC911297808180638083089508952F
:100CF0000895FC0184E391E091838083128208953A
:100D0000FC0184E391E09183808312820895DC01E9
:100D100012968C9112978A3039F0FD01E80FF11D7F
:100D200063838F5F12968C930895FC01828168170C
:100D300010F080E00895E60FF11D838108956F9211
:100D40007F928F929F92AF92BF92CF92DF92EF925B
:100D5000FF920F931F93DF93CF9300D00F92CDB7E5
:100D6000DEB77C015B01DC0112961C92FE0131961C
:100D700083E0DF011D928A95E9F7CC2401C0C3947A
:100D8000F501EC0DF11D80818823C9F73701DD24C1
:100D90004E010894811C911C1AC0F501ED0DF11D46
:100DA0008081898381818A83F7018281082F10E005
:100DB000C301B4010E9446070E0D1F1DD8011396F2
:100DC0008C93F70182818F5F8283F2E0DF0EDC1467
:100DD00020F30F900F900F90CF91DF911F910F9103
:100DE000FF90EF90DF90CF90BF90AF909F908F904B
:100DF0007F906F9008959F92AF92BF92CF92DF92B3
:100E0000EF92FF920F931F93DF93CF9300D00F9237
:100E1000CDB7DEB78C017B01FE01319683E0DF01A7
:100E20001D928A95E9F7DB011C92902EA12EDD24FC
:100E3000BE2ECF2E17C0F801ED0DF11D838190E07D
:100E40006B2D7C2D40E150E00E946713892D9A2D77
:100E50006B2D7C2D0E946307C7016B2D7C2D0E949A
:100E60003413D394F8018281D81628F3C7010F9068
:100E70000F900F90CF91DF911F910F91FF90EF9006
:100E8000DF90CF90BF90AF909F900895FB0180813D
:100E9000813608F08451893308F0875061816136CA
:100EA00008F06451693308F0675060538295807F81
:100EB000862B0895613608F06451693308F0675055
:100EC000862F80530895FB018181882321F480813E
:100ED000818380E38083089588B121E030E0009031
:100EE000480102C0220F331F0A94E2F7822B88B90F
:100EF00087B1282B27B980E090E035E0232F2A9591
:100F0000F1F7019621E0843F9207C1F7089580E050
:100F100090E035E004C0232F2A95F1F7019686175B
:100F20009707C8F308950E946C0728B160914801A3
:100F300081E090E0062E02C0880F991F0A94E2F724
:100F4000982F482F4095242328B920E030E055E021
:100F5000852F8A95F1F72F5F3F4F82E028353807BC
:100F6000B9F788B1982B98B987B1482347B980E081
:100F700090E035E0232F2A95F1F701968F30910507
:100F8000C9F72DE131E045E021503040842F8A95AA
:100F9000F1F786B190E0062E02C0959587950A94E8
:100FA000E2F780FF04C021153105C9F0EDCF21150E
:100FB0003105A9F020E030E045E005C02F5F3F4F4C
:100FC000842F8A95F1F786B190E0062E02C09595A0
:100FD00087950A94E2F780FFF1CF80E001C08FEFA0
:100FE00040EE51E0421B530B20E030E065E005C0CD
:100FF000962F9A95F1F72F5F3F4F24173507C0F3CF
:10100000089527B181E090E00090480102C0880F68
:10101000991F0A94E2F7982F282B27B988B1292F16
:101020002095822388B9662371F08AE18A95F1F7C9
:1010300088B1982B98B987B1282327B988E291E025
:101040000197F1F70895ECE2F1E03197F1F788B1FB
:10105000982B98B987B1282327B90895CF92DF92AA
:10106000EF92FF920F931F93CF93DF938C01D62EB5
:10107000C0E0D0E09AE1C92E81E0E82EF12C8C2D61
:101080008A95F1F7C7010C2E02C0880F991F0A94A8
:10109000E2F76D2D6823C8010E9401082196C8302F
:1010A000D10569F780E18A95F1F7DF91CF911F9122
:1010B0000F91FF90EF90DF90CF9008959F92AF92A5
:1010C000BF92CF92DF92EF92FF920F931F9327B1BF
:1010D0004091480181E090E0042E02C0880F991FE2
:1010E0000A94E2F7282B27B928B1382F309523230B
:1010F00028B99AE19A95F1F728B1822B88B987B17E
:10110000382337B966E425E086B190E0042E02C0AA
:10111000959587950A94E2F780FD0BC086B190E023
:10112000042E02C0959587950A94E2F780FFF6CFCA
:1011300007C06150822F8A95F1F7662329F704C012
:10114000662311F0992402C09924939470E080E002
:1011500090E00E94840F5B016C012BEA3AEA4AEAB4
:1011600050E40E949C0C7B018C0120E030E040E8C0
:101170005FE30E94A20E882314F461E054C0C8010A
:10118000B70120E030E04FE753E40E94420E18160A
:101190000CF045C0C601B50120E030E04AE754E458
:1011A0000E94960D5B016C0120E030E04AE755E4B7
:1011B0000E949C0C7B018C0120E030E040E85FE362
:1011C0000E94A20E88231CF461E070E024C0C801D4
:1011D000B70120E03FEF4FE757E40E94420E181698
:1011E000B4F4C601B50120E030E040E251E40E94D1
:1011F0009C0C0E94C60A80E991E005C0FC01319771
:10120000F1F76150704061157105C1F70EC0C8015A
:10121000B7010E94C60ACB010197F1F706C0C801C9
:10122000B7010E94C60A6A95F1F7892D1F910F91A7
:10123000FF90EF90DF90CF90BF90AF909F90089578
:10124000EF92FF920F931F93CF93DF937C0110E0F7
:10125000C0E0D0E00AE1802F8A95F1F7C7010E9433
:101260005E0890E00C2E02C0880F991F0A94E2F7E6
:10127000182B2196C830D10571F780E18A95F1F7D6
:10128000812FDF91CF911F910F91FF90EF900895E3
:101290001F93CF93DF93EC01162F88B121E030E04C
:1012A0000090480102C0220F331F0A94E2F7822BFC
:1012B00088B987B12095282327B980E090E035E0F0
:1012C000232F2A95F1F701968A3F9105C9F7CE01A0
:1012D0000E949307CE016CEC0E942E08CE016EE4B2
:1012E0000E942E08CE0162E10E942E08CE0164E326
:1012F0000E942E08612F70E06370707025E0660F09
:10130000771F2A95E1F76F61CE010E942E08CE016A
:101310000E949307CE016CEC0E942E08CE0168E477
:101320000E942E0880E49CE90197F1F7CE010E940B
:101330005E088823D9F3CE010E949307DF91CF91F5
:101340001F910895CF92DF92EF92FF920F931F9318
:10135000DF93CF93CDB7DEB72B970FB6F894DEBFF0
:101360000FBECDBF7C010E9493078F3F09F44BC095
:10137000C7016CEC0E942E08C70164E40E942E088D
:10138000C7010E945E088823D9F3C7010E94930712
:10139000C7016CEC0E942E08C7016EEB0E942E085C
:1013A0008E010D5F1F4F3CE0C32ED12CCC0EDD1EF5
:1013B000C7010E942009F80181938F01EC15FD05FA
:1013C000B9F7C7010E94930790E020E0AE014D5F9E
:1013D0005F4F0EC0FA01E90FF11D8081282738E028
:1013E0008CE820FB26950EF428273A95D1F79F5FCD
:1013F000993081F7222339F48B8189838C818A8308
:1014000029813A8102C02FEF3FEFC9012B960FB619
:10141000F894DEBF0FBECDBFCF91DF911F910F912A
:10142000FF90EF90DF90CF900895AC0130E020E086
:101430000DC0E40FF51F8081382788E09CE830FB61
:1014400036950EF439278A95D1F72F5FE22FF0E019
:10145000E617F70774F3832F08958F929F92AF9248
:10146000BF92CF92DF92EF92FF920F931F93DF9381
:10147000CF9300D0CDB7DEB7962E872E2FEF8F3FBC
:10148000920739F4862F972F60E471E00E943F1392
:1014900043C0BC0180E090E00E94840F20E030E077
:1014A00040E05FE30E949C0C5B016C010E94300FE6
:1014B000DC01CB017C01692D782D4AE050E00E94CF
:1014C0004613892D982D66E471E00E94341300279D
:1014D000F7FC0095102FC801B7010E94D20E9B01A6
:1014E000AC01C601B5010E943E0C20E030E040E2B4
:1014F00051E40E949C0C0E94300FDC01CB018E0154
:101500000F5F1F4FB8014AE050E00E944613892D3B
:10151000982DB8010E943413892D982D0F900F90AB
:10152000CF91DF911F910F91FF90EF90DF90CF90BF
:10153000BF90AF909F908F9008958DE40895089587
:1015400088E50895CF92DF92FF920F931F936A016F
:101550008C010E5F1F4FC8010E949F06C80160E00A
:101560000E949506F82EC80161E00E949506F80ECB
:10157000C8016F2D0E948706C801B6010E94FB06B4
:101580001F910F91FF90DF90CF900895EF92FF92FF
:101590000F931F937B018C0120E030E040E05FE47B
:1015A0000E94720E88238CF0C801B70120E030E061
:1015B00040E05FE40E943E0C0E94300F9B01AC01B2
:1015C000205030404040504806C0C801B7010E943A
:1015D000300F9B01AC01B901CA011F910F91FF901F
:1015E000EF900895A0E0B0E0E8EFFAE00C94F2117B
:1015F000DC012B01FA019C91923008F439C1EB0116
:101600008881823008F433C1943069F4843009F061
:101610002FC111969C9111978981981709F428C1BF
:10162000A9E5B1E025C1843009F421C18230A9F4D3
:10163000923009F01DC19A01AD0188E0EA010990DC
:10164000AE01E90109929E018150C1F7E201898151
:1016500011969C918923818308C1923009F407C1B6
:1016600012962D903C901397EB018A819B811496E2
:10167000AD90BD90CD90DC901797EC80FD800E81F1
:101680001F819101281B390BB90137FF04C0662760
:101690007727621B730B603271050CF061C0121664
:1016A00013066CF537014801062E04C09694879402
:1016B000779467940A94D2F721E030E040E050E05C
:1016C00004C0220F331F441F551F6A95D2F72150C3
:1016D0003040404050402E213F21402351232115CE
:1016E00031054105510521F021E030E040E050E0B6
:1016F00079018A01E628F728082919293CC0232BFB
:10170000D1F1260E371E35014601062E04C09694EF
:101710008794779467940A94D2F721E030E040E010
:1017200050E004C0220F331F441F551F6A95D2F7A3
:1017300021503040404050402A213B214C215D2126
:10174000211531054105510521F021E030E040E04F
:1017500050E059016A01A628B728C828D9280BC02B
:10176000821593052CF01C01AA24BB24650103C03B
:10177000EE24FF24870111969C91D20111968C9141
:10178000981709F445C0992339F0A80197012A193F
:101790003B094C095D0906C0A60195012E193F09B8
:1017A000400B510B57FD08C01182338222822483E3
:1017B0003583468357831DC081E081833382228233
:1017C00088279927DC01821B930BA40BB50B84831C
:1017D0009583A683B7830DC0220F331F441F551F67
:1017E0002483358346835783828193810197938332
:1017F00082832481358146815781DA01C9010197AD
:10180000A109B1098F5F9F4FAF4FBF4328F30BC0B2
:10181000918333822282EA0CFB1C0C1D1D1DE48285
:10182000F5820683178383E0808324813581468196
:10183000578157FF1AC0C901AA2797FDA095BA2F53
:1018400081709070A070B070569547953795279528
:10185000822B932BA42BB52B84839583A683B783EC
:1018600082819381019693838283DF0101C0D2013B
:10187000CD01CDB7DEB7E2E10C940E12A0E2B0E0EC
:10188000E4E4FCE00C94FE1169837A838B839C83EF
:101890002D833E834F835887E9E0EE2EF12CEC0E2A
:1018A000FD1ECE010196B7010E9421118E010F5E2F
:1018B0001F4FCE010596B8010E9421118A8991E03F
:1018C00089278A8BC701B801AE01475E5F4F0E942E
:1018D000F20A0E944C10A096E6E00C941A12A0E2C4
:1018E000B0E0E5E7FCE00C94FE1169837A838B831A
:1018F0009C832D833E834F835887F9E0EF2EF12C94
:10190000EC0EFD1ECE010196B7010E9421118E0141
:101910000F5E1F4FCE010596B8010E942111C7012D
:10192000B801AE01475E5F4F0E94F20A0E944C1060
:10193000A096E6E00C941A12A0E2B0E0E2EAFCE025
:101940000C94F21169837A838B839C832D833E836D
:101950004F835887CE010196BE01675F7F4F0E947B
:101960002111CE010596BE016F5E7F4F0E942111AD
:101970009985923088F089898230C8F0943019F4C2
:10198000823051F404C0843029F4923081F489E526
:1019900091E0C6C0923049F420E09A858A89981374
:1019A00021E02A87CE010996BBC0823049F420E0AD
:1019B0009A858A89981321E02A8BCE014196B0C07E
:1019C0002D843E844F8458886D887E888F88988CBB
:1019D000EE24FF248701AA24BB24650140E050E0E7
:1019E00060E070E0E0E0F0E0C10181709070892B70
:1019F000E9F0E60CF71C081D191D9A01AB012A0D30
:101A00003B1D4C1D5D1D80E090E0A0E0B0E0E614C1
:101A1000F7040805190520F481E090E0A0E0B0E0AB
:101A2000BA01A901480F591F6A1F7B1FAA0CBB1CD2
:101A3000CC1CDD1C97FE08C081E090E0A0E0B0E087
:101A4000A82AB92ACA2ADB2A3196E032F10549F0E0
:101A5000660C771C881C991C5694479437942794DD
:101A6000C3CFFA85EA892B893C898B859C85280F11
:101A7000391F2E5F3F4F17C0CA0181709070892BAC
:101A800061F016950795F794E79480E090E0A0E068
:101A9000B0E8E82AF92A0A2B1B2B7695679557950B
:101AA00047952F5F3F4F77FDE7CF0CC0440F551F81
:101AB000661F771F17FD4160EE0CFF1C001F111FF2
:101AC00021503040403090E0590790E0690790E4A1
:101AD000790760F32B8F3C8FDB01CA018F77907001
:101AE000A070B07080349105A105B10561F447FD87
:101AF0000AC0E114F1040105110529F0405C5F4FB3
:101B00006F4F7F4F40781A8EFE1711F081E08A8F59
:101B10004D8F5E8F6F8F78A383E0898FCE014996BA
:101B20000E944C10A096E2E10C940E12A8E1B0E0E5
:101B3000ECE9FDE00C94FA1169837A838B839C8332
:101B40002D833E834F835887B9E0EB2EF12CEC0EAA
:101B5000FD1ECE010196B7010E9421118E010F5E7C
:101B60001F4FCE010596B8010E9421112985223010
:101B700008F47EC03989323010F4B8017CC08A85FF
:101B80009A8989278A87243011F0223031F423176B
:101B900009F06EC069E571E06EC0343039F41D861D
:101BA0001E861F86188A1C861B8604C0323021F4CC
:101BB00084E08987B7015FC02B853C858B899C8930
:101BC000281B390B3C872B87ED84FE840F851889F1
:101BD000AD88BE88CF88D88CEA14FB040C051D059F
:101BE00040F4EE0CFF1C001F111F215030403C87B9
:101BF0002B8720E030E040E050E080E090E0A0E083
:101C0000B0E460E070E0EA14FB040C051D0540F050
:101C1000282B392B4A2B5B2BEA18FB080C091D09D2
:101C2000B695A79597958795EE0CFF1C001F111F81
:101C30006F5F7F4F6F31710531F7DA01C9018F771F
:101C40009070A070B07080349105A105B10561F469
:101C500027FD0AC0E114F1040105110529F0205CFB
:101C60003F4F4F4F5F4F20782D873E874F87588BD0
:101C7000BE01675F7F4FCB010E944C106896EAE07F
:101C80000C941612A8E1B0E0E8E4FEE00C94FE111A
:101C900069837A838B839C832D833E834F8358870C
:101CA00089E0E82EF12CEC0EFD1ECE010196B70165
:101CB0000E9421118E010F5E1F4FCE010596B801C3
:101CC0000E9421118985823040F08989823028F074
:101CD000C701B8010E94991101C08FEF6896E6E034
:101CE0000C941A12A8E1B0E0E8E7FEE00C94FE11B3
:101CF00069837A838B839C832D833E834F835887AC
:101D000089E0E82EF12CEC0EFD1ECE010196B70104
:101D10000E9421118E010F5E1F4FCE010596B80162
:101D20000E9421118985823040F08989823028F013
:101D3000C701B8010E94991101C08FEF6896E6E0D3
:101D40000C941A12A8E1B0E0E8EAFEE00C94FE114F
:101D500069837A838B839C832D833E834F8358874B
:101D600089E0E82EF12CEC0EFD1ECE010196B701A4
:101D70000E9421118E010F5E1F4FCE010596B80102
:101D80000E9421118985823040F08989823028F0B3
:101D9000C701B8010E94991101C081E06896E6E090
:101DA0000C941A12A8E0B0E0E8EDFEE00C94FB11F0
:101DB0009B01AC0183E08983DA01C9018827B7FD63
:101DC00083959927AA27BB27B82E211531054105F0
:101DD000510519F482E089833AC08823A9F02030A4
:101DE00080E0380780E0480780E8580729F460E081
:101DF00070E080E09FEC30C0EE24FF248701E21AFF
:101E0000F30A040B150B02C079018A018EE1C82E7A
:101E1000D12CDC82CB82ED82FE820F831887C80131
:101E2000B7010E94FD0F01971816190684F4082EB9
:101E300004C0EE0CFF1C001F111F0A94D2F7ED82A4
:101E4000FE820F831887C81AD90ADC82CB82BA8235
:101E5000CE0101960E944C102896E9E00C941712CE
:101E6000ACE0B0E0E6E3FFE00C94021269837A8311
:101E70008B839C83CE010196BE016B5F7F4F0E94D6
:101E800021118D81823061F1823050F1843021F452
:101E90008E81882351F12EC02F81388537FD20C0D7
:101EA0006E812F3131051CF06623F9F023C08EE1DD
:101EB00090E0821B930B29853A854B855C8504C095
:101EC00056954795379527958A95D2F76623B1F0B1
:101ED00050954095309521953F4F4F4F5F4F0EC025
:101EE00020E030E040E050E009C02FEF3FEF4FEF3F
:101EF0005FE704C020E030E040E050E8B901CA01EB
:101F00002C96E2E00C941E12A8E0B0E0EAE8FFE0B4
:101F10000C94FA117B018C01611571058105910505
:101F200019F482E0898360C083E089838EE1C82E42
:101F3000D12CDC82CB82ED82FE820F831887C80110
:101F4000B7010E94FD0FFC013197F7FF3BC022272C
:101F500033272E1B3F0B57016801022E04C0D69475
:101F6000C794B794A7940A94D2F740E050E060E099
:101F700070E081E090E0A0E0B0E004C0880F991F1D
:101F8000AA1FBB1F2A95D2F70197A109B1098E217B
:101F90009F21A023B1230097A105B10521F041E0C5
:101FA00050E060E070E04A295B296C297D294D836F
:101FB0005E836F8378878EE190E08E1B9F0B9C83FE
:101FC0008B8312C0309781F00E2E04C0EE0CFF1CE4
:101FD000001F111F0A94D2F7ED82FE820F8318872B
:101FE000CE1ADF0ADC82CB821A82CE0101960E94D1
:101FF0004C102896EAE00C941612EF92FF920F9381
:102000001F937B018C0180E0E81680E0F80681E0F8
:10201000080780E0180788F48FEFE816F10401053F
:10202000110531F028F088E090E0A0E0B0E017C0A2
:1020300080E090E0A0E0B0E012C080E0E81680E030
:10204000F80680E0080781E0180728F088E190E0B2
:10205000A0E0B0E004C080E190E0A0E0B0E020E2C9
:1020600030E040E050E0281B390B4A0B5B0B04C00A
:1020700016950795F794E7948A95D2F7F701EF59EB
:10208000FE4F8081281B310941095109C9011F9167
:102090000F91FF90EF900895DF92EF92FF920F93D0
:1020A0001F93FC01E480F58006811781D180808137
:1020B000823048F480E090E0A0E1B0E0E82AF92A1C
:1020C0000A2B1B2BA5C0843009F49FC0823021F459
:1020D000EE24FF24870105C0E114F1040105110578
:1020E00019F4E0E0F0E096C0628173819FEF6238FE
:1020F00079070CF05BC022E83FEF261B370B2A3133
:1021000031052CF020E030E040E050E02AC0B8017A
:10211000A701022E04C076956795579547950A94B6
:10212000D2F781E090E0A0E0B0E004C0880F991FF2
:10213000AA1FBB1F2A95D2F70197A109B1098E21C9
:102140009F21A023B1230097A105B10521F081E0D3
:1021500090E0A0E0B0E09A01AB01282B392B4A2B8C
:102160005B2BDA01C9018F779070A070B07080345A
:102170009105A105B10539F427FF09C0205C3F4F47
:102180004F4F5F4F04C0215C3F4F4F4F5F4FE0E028
:10219000F0E02030A0E03A07A0E04A07A0E45A07A8
:1021A00010F0E1E0F0E079018A0127C060387105A4
:1021B00064F5FB01E158FF4FD801C7018F7790709C
:1021C000A070B07080349105A105B10539F4E7FE27
:1021D0000DC080E490E0A0E0B0E004C08FE390E0A8
:1021E000A0E0B0E0E80EF91E0A1F1B1F17FF05C094
:1021F00016950795F794E794319687E0169507951D
:10220000F794E7948A95D1F705C0EE24FF2487015F
:10221000EFEFF0E06E2F679566276795902F9F7719
:10222000D794DD24D7948E2F8695492F462B582F8F
:102230005D29B701CA011F910F91FF90EF90DF90C8
:102240000895FC01DB01408151812281622F6F776B
:1022500070E0221F2227221F9381892F880F822B53
:10226000282F30E0991F9927991F11969C93119759
:1022700021153105A9F5411551056105710511F4C7
:1022800082E037C082E89FEF13969C938E9312975B
:102290009A01AB0167E0220F331F441F551F6A9557
:1022A000D1F783E08C930DC0220F331F441F551FBD
:1022B00012968D919C911397019713969C938E93F0
:1022C0001297203080E0380780E0480780E4580704
:1022D00058F314962D933D934D935C93179708955F
:1022E0002F3F310579F4411551056105710519F448
:1022F00084E08C93089564FF03C081E08C9312C046
:102300001C9210C02F57304013963C932E93129777
:1023100083E08C9387E0440F551F661F771F8A95D3
:10232000D1F7706414964D935D936D937C931797DA
:1023300008951F93DC01FB019C91923008F447C083
:102340008081823008F443C0943051F411961C917E
:10235000843099F58181682F70E0611B71093FC05D
:10236000843021F0923031F48230B9F181818823B8
:1023700089F12DC011961C9111978230F1F0818165
:102380001817D9F412962D913C911397828193815D
:102390008217930794F028173907BCF014968D9193
:1023A0009D910D90BC91A02D24813581468157814E
:1023B000281739074A075B0718F4112341F00AC0B0
:1023C00082179307A407B50740F4112319F061E0C1
:1023D00070E005C06FEF7FEF02C060E070E0CB01FE
:1023E0001F9108952F923F924F925F926F927F922A
:1023F0008F929F92AF92BF92CF92DF92EF92FF9215
:102400000F931F93CF93DF93CDB7DEB7CA1BDB0BC0
:102410000FB6F894DEBF0FBECDBF09942A88398865
:1024200048885F846E847D848C849B84AA84B9846C
:10243000C884DF80EE80FD800C811B81AA81B98178
:10244000CE0FD11D0FB6F894DEBF0FBECDBFED018C
:102450000895EE0FFF1F0590F491E02D0994CF939E
:10246000DF93BC018230910510F462E070E0A0912E
:102470008203B0918303ED01E0E0F0E040E050E042
:1024800021C0888199818617970769F48A819B8189
:10249000309719F09383828304C0909383038093D1
:1024A0008203FE0134C06817790738F441155105DD
:1024B00019F08417950708F4AC01FE018A819B810D
:1024C0009C01E9012097E9F641155105A9F1CA01DE
:1024D000861B970B049708F4BA01E0E0F0E02AC0ED
:1024E0008D919C91119784179507F9F464177507DE
:1024F00081F412968D919C911397309719F09383E4
:10250000828304C09093830380938203FD013296FB
:102510004FC0CA01861B970BFD01E80FF91F61939D
:10252000719302978D939C9343C0FD0182819381A7
:102530009C01D9011097A1F68091800390918103AD
:10254000892B41F4809163029091640290938103FE
:1025500080938003409165025091660241155105B8
:1025600041F44DB75EB78091610290916202481BC1
:10257000590B209180033091810324173507B0F463
:10258000CA01821B930B8617970780F0AB014E5F41
:102590005F4F8417950750F0420F531F50938103EC
:1025A00040938003F9016193719302C0E0E0F0E091
:1025B000CF01DF91CF910895CF93DF93009709F476
:1025C00050C0EC0122971B821A82A0918203B09125
:1025D0008303109709F140E050E0AC17BD0708F104
:1025E000BB83AA83FE0121913191E20FF31FAE1745
:1025F000BF0779F48D919C911197280F391F2E5F99
:102600003F4F3983288312968D919C9113979B831A
:102610008A834115510571F4D0938303C0938203DB
:1026200020C012968D919C911397AD01009711F0E7
:10263000DC01D3CFFA01D383C28321913191E20F20
:10264000F31FCE17DF0769F488819981280F391F9E
:102650002E5F3F4FFA01318320838A819B819383D0
:102660008283DF91CF910895FB01DC010D90002062
:10267000E9F7119701900D920020E1F70895FB0111
:10268000DC0101900D920020E1F70895FB019F010C
:10269000E8944230C4F04532B4F44A3029F497FB50
:1026A0001EF4909581959F4F642F77270E948D137C
:1026B000805D8A330CF0895D8193CB010097A1F78F
:1026C00016F45DE251931082C9010C947D13FB0155
:1026D0009F01423074F0453264F4642F77270E94E2
:1026E0008D13805D8A330CF0895D8193CB01009757
:1026F000A1F71082C9010C947D13DC01FC01672F46
:1027000071917723E1F7329704C07C916D937083C8
:102710006291AE17BF07C8F30895AA1BBB1B51E116
:1027200007C0AA1FBB1FA617B70710F0A61BB70B41
:10273000881F991F5A95A9F780959095BC01CD01E6
:062740000895F894FFCF9C
:102746000000000093000000000095020000000059
:102756005401000000009502000000009502950259
:1027660000000000D402D602950295029502D80216
:1027760000000000FB069F0600000000950295027F
:102786004552524F52002C0004000000009F0A9D43
:102796000A00000000A20AA00A00000000000000D3
:1027A60000000102020303030304040404040404F6
:1027B60004050505050505050505050505050505C4
:1027C60005060606060606060606060606060606A4
:1027D6000606060606060606060606060606060693
:1027E6000607070707070707070707070707070774
:1027F6000707070707070707070707070707070763
:102806000707070707070707070707070707070752
:102816000707070707070707070707070707070742
:102826000708080808080808080808080808080823
:102836000808080808080808080808080808080812
:102846000808080808080808080808080808080802
:1028560008080808080808080808080808080808F2
:1028660008080808080808080808080808080808E2
:1028760008080808080808080808080808080808D2
:1028860008080808080808080808080808080808C2
:1028960008080808080808080808080808080808B2
:0828A60008200084030000007B
:00000001FF
