:100000000C9435000C945D000C945D000C945D0024
:100010000C945D000C945D000C945D000C945D00EC
:100020000C945D000C945D000C945D000C945D00DC
:100030000C945D000C945D000C945D000C945D00CC
:100040000C945D000C945D000C94F6010C945D0022
:100050000C944A010C945D000C945D000C945D00BE
:100060000C945D000C945D00C60211241FBECFEFFE
:10007000D4E0DEBFCDBF11E0A0E0B1E0E2E5FEE0FC
:1000800002C005900D92AA35B107D9F712E0AAE592
:10009000B1E001C01D92AD37B107E1F710E0CAE64B
:1000A000D0E004C02297FE010E941C07C836D10789
:1000B000C9F70E94CB020C9427070C940000FC01A6
:1000C00084E091E091838083138A128A0895FC0171
:1000D00084E091E091838083138A128A0895FB0162
:1000E00002C08181819380818823D9F7108208958D
:1000F000DB0120E030E002C02F5F3F4FFD01E20F47
:10010000F31F80818823C1F79D01215030408081F9
:1001100081833197E217F307D1F74C9308955F92EB
:100120006F927F928F929F92AF92BF92CF92DF9207
:10013000EF92FF920F931F93DF93CF93CDB7DEB76C
:10014000C05FD0400FB6F894DEBF0FBECDBF6C01CC
:100150009B01DB015C901982FE01E758FF4F108282
:10016000A0E0B0E0BE016F5F7F4F05C0FB01EA0F6A
:10017000FB1F80831196F901EA0FFB1F8081882302
:10018000A9F7A60FB71F1C92C6010E946F00860137
:10019000EE24FF24AA24BB2499E7692E712C6C0E4F
:1001A0007D1E4E010894811C911C26C0D801129618
:1001B000ED91FC911397A081B18112962D913C9104
:1001C0001397CF01F9010995851589F4D801129685
:1001D000ED91FC911397A081B1812D913C91CF01BC
:1001E000B401A301F901099581E0A82EB12C08946E
:1001F000E11CF11C0E5F1F4FF60182899389E816FE
:10020000F906A4F28E0107581F4FC601B801452D0B
:100210000E947800F1E0AF16B10429F48AE591E07C
:10022000B8010E941C02C051DF4F0FB6F894DEBF28
:100230000FBECDBFCF91DF911F910F91FF90EF9037
:10024000DF90CF90BF90AF909F908F907F906F90F6
:100250005F90089581E0089580E1089508950895DC
:1002600008957093C5006093C40086E08093C20037
:1002700088ED8093C10008959C018091C00085FFA6
:1002800008C0C90149960E9444048F3F11F0809331
:10029000C60008951F920F920FB60F9211242F934C
:1002A0003F934F935F936F937F938F939F93AF93FE
:1002B000BF93EF93FF938AE591E00E943C01FF9189
:1002C000EF91BF91AF919F918F917F916F915F91CE
:1002D0004F913F912F910F900FBE0F901F90189547
:1002E000AF92BF92CF92DF92EF92FF920F931F9344
:1002F000DF93CF93CDB7DEB7C058D0400FB6F89498
:10030000DEBF0FBECDBF6C01FC01EF5DFE4F8081F3
:100310009181892BE9F1118210828E010F5F1F4FAD
:1003200080E8F80111928A95E9F79DE9A92EB12C90
:10033000AC0CBD1CC5010E944404EE24FF2411C076
:10034000E114F10421F4898381E0E82EF12CC50148
:100350000E944404F801EE0DFF1D80830894E11C07
:10036000F11C8F3F11F08D3059F7D7011197FE0125
:10037000EE0DFF1D80818D3009F0D701BE016F5F4A
:100380007F4FA60FB71F1C92C60107960E94DF037E
:10039000C058DF4F0FB6F894DEBF0FBECDBFCF9170
:1003A000DF911F910F91FF90EF90DF90CF90BF9062
:1003B000AF9008951F93CF93DF93EC018091C0001D
:1003C00087FF10C01091C600CE0183569F4F612F4A
:1003D0000E941A041D3031F4CF5DDE4F81E090E0C1
:1003E00099838883DF91CF911F9108951F920F9277
:1003F0000FB60F9211242F933F934F935F936F93F8
:100400007F938F939F93AF93BF93EF93FF938AE56F
:1004100091E00E94DA01FF91EF91BF91AF919F911E
:100420008F917F916F915F914F913F912F910F909D
:100430000FBE0F901F901895EF92FF920F931F938E
:10044000CF93DF937C01EB018C01075E1F4F04C04B
:10045000C8010E941A04219668816623C9F7C80161
:100460006DE00E941A04C8016AE00E941A04C701E4
:100470000E943C01DF91CF911F910F91FF90EF906F
:100480000895EF92FF920F931F93CF93DF938C0108
:10049000EB0129E1E22EF12CE80EF91E04C0C701A0
:1004A0000E941A04219668816623C9F7C8010E9438
:1004B0003C01DF91CF911F910F91FF90EF90089534
:1004C0000F931F938C0107960E949503C8010E9409
:1004D000110380E191E0F80191838083C80149967E
:1004E0000E941204C80183569F4F0E94120483E3A6
:1004F00090E09093C5008093C40086E08093C20092
:1005000088ED8093C1000F5D1E4FF80111821082AB
:100510001F910F9108950F931F938C0107960E94CE
:100520009503C8010E94110380E191E0F8019183D5
:100530008083C80149960E941204C80183569F4FC8
:100540000E94120483E390E09093C5008093C4005E
:1005500086E08093C20088ED8093C1000F5D1E4F3E
:10056000F801118210821F910F910895FC0120E083
:1005700030E08081882311F421E030E0C901089542
:10058000FC0181E080830895089508958AE591E053
:100590000E94600208950F931F93DF93CF93CDB70E
:1005A000DEB76D970FB6F894DEBF0FBECDBFCE019C
:1005B00001960E94110382E491E09A838983449614
:1005C000998788877894229A8E01065F1F4FC80109
:1005D0000E94670081E691E0B8010E94C4034C8D3F
:1005E0005D8D4F5F5F4FFA01EE0FFF1F9E012F5F82
:1005F0003F4FE20FF31FCE010896928781875D8FF0
:100600004C8F122F032F812F902F0E9451038AE5C8
:1006100091E00E945103F7CF81E0089580E10895B1
:100620000895FC0188E291E0918380831382128215
:10063000148215820895FC0188E291E09183808301
:10064000138212821482158208951F93CF93DF9331
:10065000EC011D811F5F1D83E881F9810280F38118
:10066000E02D0995181761F48E81883C48F4E881E3
:10067000F9810284F385E02DCE0109951D821E8249
:10068000DF91CF911F910895FC018581882319F096
:1006900086818F5F86838681893C10F01582168261
:1006A0000895CF93DF93EC01E881F9810190F08107
:1006B000E02D0995982F8130C9F48B81882319F496
:1006C0001A821C829B838A818E3111F481E08C8393
:1006D0008C81813039F4E881F9810680F781E02D41
:1006E000CE0109958A818F5F8A8319C08A81882308
:1006F00099F08C81E881F981882349F40480F5819F
:10070000E02DCE010995CE010E94250305C000848D
:10071000F185E02DCE0109951B821A821C82CE0143
:100720000E944403DF91CF910895FC011182108251
:100730000895FC01118210820895CF93DF93EC019C
:10074000DC0120E030E018C012968D919C91139747
:100750008617970771F43197F983E8833196EE0F86
:10076000FF1FEC0FFD1F8081918113969C938E9348
:1007700012972F5F3F4F1296E881F9812E173F079E
:1007800018F3DF91CF910895EF92FF920F931F938B
:100790008C017B010E949D03F8018081918101966B
:1007A000FC01EE0FFF1FE00FF11FF182E082F80164
:1007B000918380831F910F91FF90EF900895CF92C6
:1007C000DF92EF92FF920F931F93CF93DF937C0101
:1007D0006B018C01C0E0D0E00CC0D801ED91FC9120
:1007E000A081B1812D913C91CF01B601F90109950C
:1007F00021960E5F1F4FF70180819181C817D9079D
:1008000060F3DF91CF911F910F91FF90EF90DF90F8
:10081000CF900895FC01EE57FF4F80819181929314
:1008200082930895FC01EE57FF4F8081918192934E
:10083000829308950F931F939C01462F8C010058BB
:100840001F4FD801ED91FC91CF01019660E870E057
:100850000E94F306BC01E20FF31F4083F80191836D
:100860008083F901EE57FF4F8081918168177907E6
:1008700041F4CB01019660E870E00E94F306918399
:1008800080831F910F910895CF93DF93FC01EC01BA
:10089000CE57DF4F28813981E058FF4F8081918109
:1008A000E058F0408217930711F44FEF0BC0E20FAE
:1008B000F31F4081C901019660E870E00E94F306D1
:1008C00099838883842FDF91CF910895FC01EE579F
:1008D000FF4F808191819293829308950F931F938C
:1008E000DF93CF93CDB7DEB727970FB6F894DEBF6F
:1008F0000FBECDBF8C010E94FA0584E490E0F801A0
:100900009283818385E490E09483838387E490E0FD
:100910009087878388E490E09287818786E490E0DF
:100920009487838716BCEEE6F0E080818160808347
:10093000CE0101960E940F0627960FB6F894DEBFEF
:100940000FBECDBFCF91DF911F910F9108950F93EF
:100950001F93DF93CF93CDB7DEB727970FB6F894E9
:10096000DEBF0FBECDBF8C010E94FA0584E490E08B
:10097000F8019283818385E490E09483838387E404
:1009800090E09087878388E490E09287818786E46F
:1009900090E09487838716BCEEE6F0E0808181606A
:1009A0008083CE0101960E940F0627960FB6F89419
:1009B000DEBF0FBECDBFCF91DF911F910F91089584
:1009C0000F931F93DF93CF93CDB7DEB727970FB663
:1009D000F894DEBF0FBECDBF8C010E94FA0580E8FF
:1009E00090E0D80112969C938E93119781E890E045
:1009F00014969C938E93139782E890E016969C939E
:100A00008E93159788E890E018969C938E9317978D
:100A10008AE890E01A969C938E931997E4E8F0E0A8
:100A20001E96FC93EE931D9711821082EFE6F0E084
:100A3000808181608083CE0101960E940F062796F7
:100A40000FB6F894DEBF0FBECDBFCF91DF911F91DF
:100A50000F9108950F931F93DF93CF93CDB7DEB718
:100A600027970FB6F894DEBF0FBECDBF8C010E9452
:100A7000FA0580E890E0D80112969C938E93119726
:100A800081E890E014969C938E93139782E890E00F
:100A900016969C938E93159788E890E018969C93F1
:100AA0008E9317978AE890E01A969C938E931997E5
:100AB000E4E8F0E01E96FC93EE931D9711821082FD
:100AC000EFE6F0E0808181608083CE0101960E9494
:100AD0000F0627960FB6F894DEBF0FBECDBFCF919D
:100AE000DF911F910F9108950F931F93DF93CF9381
:100AF000CDB7DEB727970FB6F894DEBF0FBECDBFD8
:100B00008C010E94FA0580EB90E0D80112969C932C
:100B10008E93119781EB90E014969C938E9313978C
:100B200083EB90E018969C938E93179784EB90E05C
:100B30001A969C938E931997E2EBF0E01C96FC9327
:100B4000EE931B971082E0E7F0E080818160808364
:100B5000CE0101960E940F0627960FB6F894DEBFCD
:100B60000FBECDBFCF91DF911F910F9108950F93CD
:100B70001F93DF93CF93CDB7DEB727970FB6F894C7
:100B8000DEBF0FBECDBF8C010E94FA0580EB90E066
:100B9000D80112969C938E93119781EB90E0149656
:100BA0009C938E93139783EB90E018969C938E936F
:100BB000179784EB90E01A969C938E931997E2EB2B
:100BC000F0E01C96FC93EE931B971082E0E7F0E0B8
:100BD000808181608083CE0101960E940F06279656
:100BE0000FB6F894DEBF0FBECDBFCF91DF911F913E
:100BF0000F910895DC011396ED91FC9114971082EA
:100C00001196ED91FC911297108281E08C931396CE
:100C1000ED91FC9114978081887F80830895DC0199
:100C20001396ED91FC91149710821196ED91FC9121
:100C30001297108281E08C931396ED91FC9114979A
:100C40008081887F80830895FC01A381B4818C9189
:100C5000887F8C93A381B4819C9180818770892B3C
:100C60008C930895DC011396ED91FC91149780818B
:100C7000887F80830895FC0160830895DC011196CC
:100C8000ED91FC91129780818C7F80831396ED917A
:100C9000FC9114978081877E80830895DC011196F2
:100CA000ED91FC91129780818C7F80831396ED915A
:100CB000FC9114978081886180830895DC011196EE
:100CC000ED91FC9112978081836080831396ED9162
:100CD000FC9114978081877E80830895DC011196B2
:100CE000ED91FC91129780818C7F80831196ED911C
:100CF000FC91129780816370862B80831396ED910F
:100D0000FC9114978081877E80830895DC01119681
:100D1000ED91FC91129780818F7380830895DC019F
:100D20001396ED91FC91149780818F7C80830895B8
:100D3000DC011196ED91FC91129780818F73808375
:100D40001196ED91FC9112978081806880830895BF
:100D5000DC011196ED91FC91129780818F7C80834C
:100D60001196ED91FC911297808180830895DC01AA
:100D70001196ED91FC91129780818F73808311966B
:100D8000ED91FC9112978081806C80830895DC0145
:100D90001196ED91FC91129780818F7C8083119642
:100DA000ED91FC911297808180638083089581E0AA
:100DB000089580E1089508950895089507970E9481
:100DC000E206089588E50895460F571FCA01089561
:100DD000089507970E94ED060895CA0164E371E043
:100DE0000E942007089597FB092E07260AD077FD59
:100DF00004D00CD006D000201AF4709561957F4F76
:100E00000895F6F7909581959F4F0895AA1BBB1BF7
:100E100051E107C0AA1FBB1FA617B70710F0A61BFA
:100E2000B70B881F991F5A95A9F780959095BC011B
:100E3000CD010895EE0FFF1F0590F491E02D099468
:100E4000FB01DC0101900D920020E1F70895F89478
:020E5000FFCFD2
:100E5200000000008F0000000000C502000000003A
:100E62002A012C012F01700130012E010000000027
:100E7200C502C502000000002A012C01C502C502FC
:100E8200C5022E016F64706F776965647A00000095
:100E920000002A012C01DC06E806DD062E01ED0623
:0A0EA200E206F9FF0000E906DE0693
:00000001FF
