:100000000C9435000C945D000C945D000C945D0024
:100010000C945D000C945D000C945D000C945D00EC
:100020000C945D000C945D000C945D000C945D00DC
:100030000C945D000C945D000C945D000C945D00CC
:100040000C945D000C945D000C94F1010C945D0027
:100050000C9445010C945D000C945D000C945D00C3
:100060000C945D000C945D00BB0211241FBECFEF09
:10007000D4E0DEBFCDBF11E0A0E0B1E0EEE1FEE0F4
:1000800002C005900D92A235B107D9F712E0A2E5A2
:10009000B1E001C01D92A037B107E1F710E0CAE658
:1000A000D0E004C02297FE010E940207C836D107A3
:1000B000C9F70E94C0020C940D070C940000FC01CB
:1000C00084E091E091838083138A128A0895FC0171
:1000D00084E091E091838083138A128A0895FB0162
:1000E00002C08281819380818823D9F7108208958C
:1000F000DB0160E070E002C06F5F7F4FFD01E60F43
:10010000F71F80818823C1F7BD0161507040808155
:1001100082833197E617F707D1F74C9311962C930A
:100120000895AF92BF92CF92DF92EF92FF920F931A
:100130001F93DF93CF93CDB7DEB7C05FD0400FB62C
:10014000F894DEBF0FBECDBF6C01AB0120E030E004
:1001500002C02F5F3F4FFA01E20FF31F8081882317
:10016000C1F7233031050CF465C0DA01BC9011965B
:10017000AC901982FE01E758FF4F1082A0E0B0E07A
:10018000BE016F5F7F4F05C0FB01EA0FFB1F80833D
:100190001196FA01EA0FFB1F80818823A9F7A60FA9
:1001A000B71F1C92C6010E946F00760100E010E0AC
:1001B00038C0D7011296ED91FC911397A081B181BF
:1001C00012962D913C911397CF01F9010995E2E028
:1001D000F0E0EE0EFF1EF80131968B1509F5EE0FDB
:1001E000FF1FEC0DFD1DA081B181ED91FC911197D8
:1001F0008E0107581F4F0190F081E02DCD01BE0107
:100200006F5F7F4FA8010995C601B8014B2D2A2DBC
:100210000E94780082E591E0B8010E9417020AC0AE
:100220008F01D60152968D919C915397081719070B
:100230000CF4BFCFC051DF4F0FB6F894DEBF0FBE36
:10024000CDBFCF91DF911F910F91FF90EF90DF9085
:10025000CF90BF90AF9008957093C5006093C40095
:1002600086E08093C20088ED8093C10008959C01D0
:100270008091C00085FF08C0C90144960E943104E6
:100280008F3F11F08093C60008951F920F920FB612
:100290000F9211242F933F934F935F936F937F930C
:1002A0008F939F93AF93BF93EF93FF9382E591E07A
:1002B0000E943701FF91EF91BF91AF919F918F9174
:1002C0007F916F915F914F913F912F910F900FBE52
:1002D0000F901F901895AF92BF92CF92DF92EF923E
:1002E000FF920F931F93DF93CF93CDB7DEB7C05824
:1002F000D0400FB6F894DEBF0FBECDBF6C01FC013D
:10030000E45EFE4F80819181892BE9F11182108298
:100310008E010F5F1F4F80E8F80111928A95E9F76F
:1003200098E9A92EB12CAC0CBD1CC5010E9431046A
:10033000EE24FF2411C0E114F10421F4898381E04B
:10034000E82EF12CC5010E943104F801EE0DFF1DCD
:1003500080830894E11CF11C8F3F11F08D3059F718
:10036000D7011197FE01EE0DFF1D80818D3009F040
:10037000D701BE016F5F7F4FA60FB71F1C92C6014A
:1003800002960E94CC03C058DF4F0FB6F894DEBF30
:100390000FBECDBFCF91DF911F910F91FF90EF90D6
:1003A000DF90CF90BF90AF9008951F93CF93DF93CE
:1003B000EC018091C00087FF10C01091C600CE01F3
:1003C00088569F4F612F0E9407041D3031F4C45E90
:1003D000DE4F81E090E099838883DF91CF911F9178
:1003E00008951F920F920FB60F9211242F933F93EF
:1003F0004F935F936F937F938F939F93AF93BF932D
:10040000EF93FF9382E591E00E94D501FF91EF9178
:10041000BF91AF919F918F917F916F915F914F911C
:100420003F912F910F900FBE0F901F901895EF9254
:10043000FF920F931F93CF93DF937C01EB018C010D
:100440000C5E1F4F04C0C8010E94070421966881FA
:100450006623C9F7C8016DE00E940704C8016AE07D
:100460000E940704C7010E943701DF91CF911F91BD
:100470000F91FF90EF900895EF92FF920F931F93CB
:10048000CF93DF938C01EB0124E1E22EF12CE80EF7
:10049000F91E04C0C7010E940704219668816623E3
:1004A000C9F7C8010E943701DF91CF911F910F91C9
:1004B000FF90EF9008950F931F938C0102960E9476
:1004C000820380E191E0F80191838083C801449622
:1004D0000E94FF03C80188569F4F0E94FF0383E3D9
:1004E00090E09093C5008093C40086E08093C200A2
:1004F00088ED8093C100045E1E4FF80111821082C6
:100500001F910F9108950F931F938C0102960E94E3
:10051000820380E191E0F80191838083C8014496D1
:100520000E94FF03C80188569F4F0E94FF0383E388
:1005300090E09093C5008093C40086E08093C20051
:1005400088ED8093C100045E1E4FF8011182108275
:100550001F910F910895FC0120E030E080818823F5
:1005600011F421E030E0C9010895FC0181E08083AD
:1005700008950895089582E591E00E945B02089530
:100580000F931F93DF93CF93CDB7DEB768970FB666
:10059000F894DEBF0FBECDBF84E491E09A838983D7
:1005A0000A969C838B838E010B5F1F4FC8010E94AC
:1005B000670084E591E0B8010E94B1032F89388D6E
:1005C0002F5F3F4FF901EE0FFF1FEC0FFD1FCE0114
:1005D000039696838583388F2F8B78948E010F5FD7
:1005E0001F4F82E591E00E946B01C8010E94CE0678
:1005F000F8CF81E0089580E108950895FC018AE232
:1006000091E091838083138212821482158208956F
:10061000FC018AE291E0918380831382128214822A
:10062000158208951F93CF93DF93EC011D811F5F07
:100630001D83E881F9810280F381E02D0995181767
:1006400061F48E81883C48F4E881F9810284F38565
:10065000E02DCE0109951D821E82DF91CF911F9161
:100660000895FC018581882319F086818F5F868338
:100670008681893C10F0158216820895CF93DF930E
:10068000EC01E881F9810190F081E02D0995982F26
:100690008130C9F48B81882319F41A821C829B83D0
:1006A0008A818E3111F481E08C838C81813039F420
:1006B000E881F9810680F781E02DCE0109958A81D4
:1006C0008F5F8A8319C08A81882399F08C81E881A1
:1006D000F981882349F40480F581E02DCE01099544
:1006E000CE010E94120305C00084F185E02DCE01E9
:1006F00009951B821A821C82CE010E943103DF9170
:10070000CF910895FC01118210820895FC0111829D
:1007100010820895CF93DF93EC01DC0120E030E0FC
:1007200018C012968D919C9113978617970771F4B4
:100730003197F983E8833196EE0FFF1FEC0FFD1F11
:100740008081918113969C938E9312972F5F3F4FD8
:100750001296E881F9812E173F0718F3DF91CF91A8
:100760000895EF92FF920F931F938C017B010E94DB
:100770008A03F801808191810196FC01EE0FFF1F31
:10078000E00FF11FF182E082F801918380831F91D5
:100790000F91FF90EF900895CF92DF92EF92FF922A
:1007A0000F931F93CF93DF937C016B018C01C0E00B
:1007B000D0E00CC0D801ED91FC91A081B1812D91C8
:1007C0003C91CF01B601F901099521960E5F1F4FAB
:1007D000F70180819181C817D90760F3DF91CF912C
:1007E0001F910F91FF90EF90DF90CF900895FC0143
:1007F000EE57FF4F80819181929382930895FC017F
:10080000EE57FF4F808191819293829308950F93C9
:100810001F939C01462F8C0100581F4FD801ED916A
:10082000FC91CF01019660E870E00E94D906BC01FE
:10083000E20FF31F4083F80191838083F901EE57A3
:10084000FF4F808191816817790741F4CB010196B0
:1008500060E870E00E94D906918380831F910F9118
:100860000895CF93DF93FC01EC01CE57DF4F288131
:100870003981E058FF4F80819181E058F040821724
:10088000930711F44FEF0BC0E20FF31F4081C90132
:10089000019660E870E00E94D90699838883842FCE
:1008A000DF91CF910895FC01EE57FF4F8081918138
:1008B0009293829308950F931F93DF93CF93CDB7B5
:1008C000DEB727970FB6F894DEBF0FBECDBF8C0101
:1008D0000E94E70584E490E0F8019283818385E437
:1008E00090E09483838387E490E09087878388E413
:1008F00090E09287818786E490E09487838716BC96
:10090000EEE6F0E0808181608083CE0101960E9456
:10091000FC0527960FB6F894DEBF0FBECDBFCF9172
:10092000DF911F910F9108950F931F93DF93CF9342
:10093000CDB7DEB727970FB6F894DEBF0FBECDBF99
:100940008C010E94E70584E490E0F80192838183A2
:1009500085E490E09483838387E490E090878783A5
:1009600088E490E09287818786E490E0948783878B
:1009700016BCEEE6F0E0808181608083CE010196B6
:100980000E94FC0527960FB6F894DEBF0FBECDBFC0
:10099000CF91DF911F910F9108950F931F93DF93D4
:1009A000CF93CDB7DEB727970FB6F894DEBF0FBE53
:1009B000CDBF8C010E94E70580E890E0D801129637
:1009C0009C938E93119781E890E014969C938E935C
:1009D000139782E890E016969C938E93159788E87B
:1009E00090E018969C938E9317978AE890E01A9659
:1009F0009C938E931997E4E8F0E01E96FC93EE9397
:100A00001D9711821082EFE6F0E080818160808383
:100A1000CE0101960E94FC0527960FB6F894DEBF22
:100A20000FBECDBFCF91DF911F910F9108950F930E
:100A30001F93DF93CF93CDB7DEB727970FB6F89408
:100A4000DEBF0FBECDBF8C010E94E70580E890E0BD
:100A5000D80112969C938E93119781E890E014969A
:100A60009C938E93139782E890E016969C938E93B6
:100A7000159788E890E018969C938E9317978AE8CC
:100A800090E01A969C938E931997E4E8F0E01E96F6
:100A9000FC93EE931D9711821082EFE6F0E08081C7
:100AA00081608083CE0101960E94FC0527960FB6D7
:100AB000F894DEBF0FBECDBFCF91DF911F910F9194
:100AC00008950F931F93DF93CF93CDB7DEB727978A
:100AD0000FB6F894DEBF0FBECDBF8C010E94E705B4
:100AE00080EB90E0D80112969C938E93119781EB46
:100AF00090E014969C938E93139783EB90E0189656
:100B00009C938E93179784EB90E01A969C938E9308
:100B10001997E2EBF0E01C96FC93EE931B97108282
:100B2000E0E7F0E0808181608083CE0101960E9441
:100B3000FC0527960FB6F894DEBF0FBECDBFCF9150
:100B4000DF911F910F9108950F931F93DF93CF9320
:100B5000CDB7DEB727970FB6F894DEBF0FBECDBF77
:100B60008C010E94E70580EB90E0D80112969C93DF
:100B70008E93119781EB90E014969C938E9313972C
:100B800083EB90E018969C938E93179784EB90E0FC
:100B90001A969C938E931997E2EBF0E01C96FC93C7
:100BA000EE931B971082E0E7F0E080818160808304
:100BB000CE0101960E94FC0527960FB6F894DEBF81
:100BC0000FBECDBFCF91DF911F910F910895DC0132
:100BD0001396ED91FC91149710821196ED91FC9172
:100BE0001297108281E08C931396ED91FC911497EB
:100BF0008081887F80830895DC011396ED91FC91BC
:100C0000149710821196ED91FC911297108281E059
:100C10008C931396ED91FC9114978081887F80834B
:100C20000895FC01A381B4818C91887F8C93A3816A
:100C3000B4819C9180818770892B8C930895DC010D
:100C40001396ED91FC9114978081887F808308959D
:100C5000FC0160830895DC011196ED91FC911297DF
:100C600080818C7F80831396ED91FC911497808115
:100C7000877E80830895DC011196ED91FC91129797
:100C800080818C7F80831396ED91FC9114978081F5
:100C9000886180830895DC011196ED91FC91129793
:100CA0008081836080831396ED91FC9114978081FD
:100CB000877E80830895DC011196ED91FC91129757
:100CC00080818C7F80831196ED91FC9112978081B9
:100CD0006370862B80831396ED91FC91149780812D
:100CE000877E80830895DC011196ED91FC91129727
:100CF00080818F7380830895DC011396ED91FC91C0
:100D0000149780818F7C80830895DC011196ED918A
:100D1000FC91129780818F7380831196ED91FC91E5
:100D200012978081806880830895DC011196ED918F
:100D3000FC91129780818F7C80831196ED91FC91BC
:100D40001297808180830895DC011196ED91FC91CA
:100D5000129780818F7380831196ED91FC91129789
:100D60008081806C80830895DC011196ED91FC9167
:100D7000129780818F7C80831196ED91FC91129760
:100D8000808180638083089502970E94C806089539
:100D900088E50895460F571FCA01089508950297E0
:100DA0000E94D3060895CA0166E371E00E94060717
:100DB000089597FB092E07260AD077FD04D00CD0A2
:100DC00006D000201AF4709561957F4F0895F6F7CC
:100DD000909581959F4F0895AA1BBB1B51E107C0B9
:100DE000AA1FBB1FA617B70710F0A61BB70B881FBB
:100DF000991F5A95A9F780959095BC01CD0108954A
:100E0000EE0FFF1F0590F491E02D0994FB01DC012A
:0E0E100001900D920020E1F70895F894FFCFB5
:100E1E0000000000910000000000BA020000000077
:100E2E006B0100000000BA0200000000BA020000D0
:100E3E000000BA02BA0200000000F902FB02BA0278
:100E4E00BA02BA02FD026F64706F776965647A0048
:100E5E0000000000CE06D306C806FEFF0000CF0637
:020E6E00C406B8
:00000001FF
